S3150800000050050020010100088D1300084912000858
S315080000107913000869090008832600080000000013
S31508000020000000000000000000000000611B00083E
S315080000306D09000800000000071A00084D1C00089A
S315080000401B0100081B0100081B0100081B01000812
S315080000501B0100081B0100081B0100081B01000802
S315080000601B0100081B0100081B0100081B010008F2
S315080000701B0100081B0100081B0100081B010008E2
S315080000801B0100081B0100081B0100081B010008D2
S315080000901B0100081B0100081B0100081B010008C2
S315080000A01B0100081B0100081B0100081B010008B2
S315080000B0211D00081B010008911E00081B010008ED
S315080000C01B0100081B0100081B0100081B01000892
S315080000D01B0100087D2300085D2400081B01000899
S315080000E01B0100081B0100081B010008DFF80CD0E3
S315080000F000F024FC00480047F530000850050020B1
S315080001000648804706480047FEE7FEE7FEE7FEE7A3
S31508000110FEE7FEE7FEE7FEE7FEE7FEE7C11C00088E
S31508000120ED0000082DE9F05F0546002092469B4643
S3150800013088460646814640241BE0284641464746EF
S31508000140224600F0A6FA53465A46C01A914110D3E1
S3150800015011461846224600F08DFA2D1A67EB01085B
S315080001604F4622460120002100F084FA17EB0009C9
S315080001704E41201EA4F10104DFDC484631462A46DA
S315080001804346BDE8F09FF0B480EA0102D40F42006E
S31508000190B2EB410F02D20246084611464A0042D047
S315080001A0C30DDDB2C1F3C752AD1A202D35DAC1F33E
S315080001B0160141F4000204B15242C5F1200602FAC2
S315080001C006F12A411044B3EBD05F23D0C4B1012D08
S315080001D0A0EBC35009DCF0BC4FF0004202EAC35260
S315080001E0DBB200F5000000F07FBA400000F1807035
S315080001F000EBC350A0F1807040EAD170490009E0D5
S31508000200490841EAC071A0EBC35000F50000400858
S3150800021000EBC350F0BC00F05EBA6142012202EB6B
S315080002204101001BF6E7F0BC704781F00041AAE7E0
S3150800023080F00040A7E780EA010210B502F000430B
S31508000240400022D04A001FD0010E01EB1261C0F314
S315080002505600C2F3560240F4000042F40002A0FB26
S31508000260022000047F39140400D0401C50EA1240D2
S3150800027001D44000491EC2B20C0604EBD010401C43
S315080002804008802A02D003E0002010BD20F00100BB
S31508000290002900DA0020184310BD2DE9FE4F8046DC
S315080002A081EA0300C00F0C46009021F0004123F0BC
S315080002B00045B8EB0200A94105D2404621469046C2
S315080002C01C460B46024623F00040104347D0270D34
S315080002D0C7F30A00C3F30A510290401A0190402856
S315080002E06BDAC3F3130040F4801B0098924620B1E2
S315080002F00023D2EB030A63EB0B0B01985946C0F1B6
S315080003004002504600F0B6F906460D465046594694
S31508000310019A00F0CEF910EB08006141002487EA43
S31508000320115284EAE7731A4340D0009A62B3019ADD
S31508000330012A4FEA075215DC001B61EB02014FF058
S31508000340004202EA0752CDE90042001C41F580113D
S3150800035032462B4600F005FA03B0BDE8F08F40465A
S315080003602146F9E7001B61EB0201001C41F58013E9
S3150800037000185B412018A2F5001747EB030140EA75
S31508000380D570B6196D4111E06D084FEA360645EA93
S31508000390C0754FEA0752001B61EB0201001C41F5CC
S315080003A0801149084FEA30000019514132462B4660
S315080003B003B0BDE8F04F00F0C5B90098012240002F
S315080003C00023D0EB020263EBE073009821464FEA64
S315080003D0E074B8EB000061EB0401E9E783F0004341
S315080003E05BE781F0004158E72DE9FE4F81EA0304F7
S315080003F004F0004421F0004100944FF0000B23F074
S31508000400004350EA01045ED052EA03045BD0C3F30A
S315080004100A54C1F30A552C44A4F2F3340194A0FB00
S315080004200254C1F3130141F48011C3F3130343F4D7
S31508000430801301FB024400FB034E840A970A44EA30
S31508000440815447EA8357A4FB076802958D0A05FB82
S3150800045007854FEA932C04FB0C542705029D4FEAA7
S31508000460065847EA1637B5EB08056EEB070C870EF4
S31508000470920E47EA811742EA8312A7FB0201B6EBFE
S315080004800B0164EB00042B0D43EA0C335E1844EBB6
S315080004901C50DA465146E7FB0201C5F313044FEA3E
S315080004A00B3343EA14534FEA0432019C43EA06032A
S315080004B0A4F10C040294009CCDE900B400F051F9B3
S315080004C003B0BDE8F08F00200146F9E7C10F80EAC6
S315080004D0E0700844CA079623002100F005B90EB556
S315080004E0C10F80EAE0700844CA07002140F233438E
S315080004F08DE80E000A460B4600F033F903B000BD3E
S3150800050000F0004220F00040C10DC0F3160040F490
S3150800051000007F2901DA00207047962903DCC1F123
S315080005209601C84001E096398840002AF4D0404236
S31508000530704720F00040C10DC0F3160040F40000DB
S315080005407F2901DA00207047962903DCC1F196015C
S31508000550C840704796398840704770B5C1F30A524B
S3150800056001F000450024C1F3130140F2FF3341F4C2
S3150800057080119A4201DA002070BD40F233439A4254
S31508000580A2F2334203DC524200F083F800E09040C6
S315080005902C43F1D0404270BDC1F30A5210B5C1F3E5
S315080005A0130140F2FF3341F480119A4201DA002028
S315080005B010BD40F233439A42A2F2334203DC524260
S315080005C000F067F810BD904010BD00F0004230F012
S315080005D000400AD0C10D01F56071C0F3160042EA69
S315080005E00151C20840071143704700200146704771
S315080005F030B5041E71F1000404DB4FF0004440429C
S3150800060064EB0101141E73F1000405DB1C464FF070
S315080006100043524263EB04038B4208BF824230BD5B
S31508000620002801DBC0F10040002901DBC1F10041CF
S3150800063081427047002801DBC0F10040002901DB38
S31508000640C1F100418842704730B50B46014600208B
S315080006502022012409E021FA02F59D4205D303FA76
S3150800066002F5491B04FA02F52844151EA2F10102F7
S31508000670F1DC30BD202A04DB203A00FA02F1002022
S3150800068070479140C2F1200320FA03F319439040C2
S315080006907047202A04DB203A21FA02F0002170472D
S315080006A021FA02F3D040C2F12002914008431946CC
S315080006B07047202A06DBCB17203A41FA02F043EAB4
S315080006C0E07306E041FA02F3D040C2F120029140FD
S315080006D00843194670470029A8BF7047401C4900BF
S315080006E008BF20F00100704710B4B0FA80FC00FA89
S315080006F00CF050EA010404BF10BC704749B1CCF1B4
S31508000700200421FA04F411FA0CF118BF012121433F
S315080007100843A3EB0C01CB1D4FEA00614FEA1020FA
S3150800072042BF002010BC704700EBC350104400299C
S31508000730A4BF10BC7047401C490008BF20F0010048
S3150800074010BC704710B5141E73F1000408DA401C7B
S3150800075041F1000192185B411A4301D120F00100D2
S3150800076010BD2DE9F04D92469B4611B1B1FA81F2C2
S3150800077002E0B0FA80F220329046FFF77BFF04468B
S315080007800F4640EA0A0041EA0B0153465A46084317
S3150800079013D0114653EA010019D0C8F14002504659
S315080007A0FFF777FF05460E46504659464246FFF77D
S315080007B061FF084305D0012004E020463946BDE81C
S315080007C0F08D0020054346EAE0762C4337430A9825
S315080007D06305E40AA0EB08000022FD0A44EA475430
S315080007E00A3002D500200146E9E7010510196941DA
S315080007F0DDE9084500196941BDE8F04DA2E72DE994
S31508000800F04D81EA030404F0004B21F0004514463C
S315080008104FF0000A23F0004150EA050220D054EABE
S3150800082001021DD0C5F30A570246C5F31303C1F3E7
S315080008301300C1F30A5640F4801543F48013A7EB5E
S315080008400608101BD64608F2FD3873EB050002D3DE
S3150800085008F1010801E092185B41B8F1000F03DACC
S3150800086000200146BDE8F08D00204FF480110646B1
S3150800087084460EE0171B73EB050705D3121B63EBC3
S31508000880050306434CEA010C49084FEA3000921862
S315080008905B4150EA0107EDD152EA030012D082EA21
S315080008A0040083EA0501084305D0101BAB4106D2B4
S315080008B00122002306E000224FF0004302E06FF019
S315080008C0010253101AEB06004CEB085110EB0A0014
S315080008D041EB0B01BDE8F04DFFF734BFC1F30A52F7
S315080008E0C1F3130140F2FF3341F480119A4202DA50
S315080008F000200146704740F233439A42A2F233423F
S3150800090002DC5242FFF7C5BEFFF7B4BE30B5041E7F
S3150800091071F1000404DB4FF00044404264EB01012E
S31508000920141E73F1000405DB1C464FF000435242C7
S3150800093063EB0403994208BF904230BD064C074D4D
S3150800094006E0E06840F0010394E807009847103491
S31508000950AC42F6D3FFF7CEFB743B0008943B000885
S31508000960002800DA4042704700BFFEE770470000E3
S3150800097070B51E48006808B9012000E000201B4930
S3150800098008601B480078F0B11A48007850B11A4838
S3150800099001780A2319A26E2000F096FF0020154957
S315080009A0087010E0144801780A2320226E2000F00F
S315080009B039FF114801780A232022762000F032FFF9
S315080009C001200C4908700E480068FFF7FEFD044632
S315080009D022460B460BA10E4801F0B2FE0A230C4A2A
S315080009E00621002000F070FF70BD0000B40122420D
S315080009F04800002088000020340000203C2D00001C
S31508000A00200000204865696768743A252E3166001B
S31508000A102C010020F8B5DC480078002878D00120A1
S31508000A20DA490870DA48007808B3DA48DA4908601B
S31508000A304868FFF765FD0446FFF792FFD74909683E
S31508000A40884205DAD6480068401CD549086002E0A5
S31508000A500020D3490860D2480068FA2807DD00203C
S31508000A60CF490860CA4908700120CE490870CD48A8
S31508000A70007868B3CC48C8490860CC48006828B9EB
S31508000A8044F62060C8600120C8490860C249486821
S31508000A90FFF736FD0446FFF763FFC0490968884239
S31508000AA005DABF480068401CBD49086002E000201E
S31508000AB0BB490860BA480068FA2809DD0020B84929
S31508000AC00860BA490860B74908700120B849087033
S31508000AD0B748007870B3AF48AF490860B3480068B4
S31508000AE028B941F65830C8600120B0490860AA49BB
S31508000AF04868FFF705FD0446FFF732FFA74909686E
S31508000B00884206DAA6480068401CA549086003E042
S31508000B1053E00020A2490860A1480068FA2809DDC8
S31508000B2000209F490860A1490860A1490870012072
S31508000B30A04908709F48007878B39B489649086092
S31508000B409A48006828B944F62060C8600120974989
S31508000B50086091494868FFF7D3FC0446FFF700FF91
S31508000B608E490968884205DA8D480068401C8C4918
S31508000B70086002E000208A49086089480068FA2867
S31508000B800BDD002086490860884908608949087095
S31508000B90012089490870894908708748007860B13A
S31508000BA000F0ECFB002078490870834908700120A2
S31508000BB07749087000207549087081480078002830
S31508000BC074D08048007818B300207049087040F245
S31508000BD014517D4801F061FA6E497C480068FFF7B8
S31508000BE01FFD15D27A4800686D490968401AB0F5A4
S31508000BF07A7F0DDD00207349087001207549087059
S31508000C0000F0BCFB642002F033FA00206449086057
S31508000C1070480078F0B100F0B1FB0020694908700F
S31508000C205C496A480068FFF705FD13D240F2A461E3
S31508000C30654801F032FA142002F01AFA01205349E5
S31508000C400870544854490860002062490870012019
S31508000C50614908706048007840B34F494868FFF713
S31508000C604FFC0446FFF77CFE322805DA4C4800683C
S31508000C70401C4B49086002E0002049490860484882
S31508000C800068FA2812DD00204049087000F076FB5B
S31508000C9000205149087001204A4908700020484937
S31508000CA0087001204D490870444908704C4800787E
S31508000CB0002867D00A234BA20021084600F004FE4C
S31508000CC035490868FFF781FC054601202A460B4688
S31508000CD0002100905A2000F0E5FB00203F490870EB
S31508000CE04348007800284CD0002000F0C5FA044696
S31508000CF0012C06D0022C17D0032C28D0042C3FD167
S31508000D0029E0254908683B49FFF73DFA224908606A
S31508000D1008683949FFF78EFC01D2384801E01E48B9
S31508000D2000681D4908602BE01B4908683149FFF730
S31508000D307CFA1949086008683149FFF771FC01D245
S31508000D402F4801E0144800681349086018E001209C
S31508000D500E49087014E000200C49087024490870F0
S31508000D6001201649087000201D49087000F006FB8E
S31508000D7000F050FB00F06EFB01201849087000BF18
S31508000D8000BF00BFF8BD000040000020470000205B
S31508000D904100002000004844FC0000203C000020E0
S31508000DA028000020420000200000C8432C00002034
S31508000DB04300002044000020450000204900002090
S31508000DC035000020360000200004004020000020E6
S31508000DD0300000203700002038000020480000209E
S31508000DE046000020536574204865696768743A00B0
S31508000DF04A0000200000484200007A4400806D4402
S31508000E000000C84210B5634963480068FFF708FC4C
S31508000E1024D2002160480068FFF70CFC1ED25F4808
S31508000E20007800B35E4801685B480068FFF7FDF983
S31508000E3080F0004421465A4802F092F900B2594916
S31508000E4008800846008800F5C87000B20880084681
S31508000E50008881B2544801F020F904E000204F4987
S31508000E60087000F08BFA5148007800287BD00020E3
S31508000E7000F002FA4E4908800846B0F90000012839
S31508000E8006D0022820D003283AD004287FD16BE068
S31508000E90484801780A2320226E2000F0C3FC454802
S31508000EA001780A232022762000F0BCFC414800780D
S31508000EB0801E40B23F490870084690F90000002895
S31508000EC001DA0420087062E03A4801780A232022F1
S31508000ED06E2000F0A7FC374801780A2320227620E6
S31508000EE000F0A0FC33480078801C40B231490870F5
S31508000EF0084690F90000042801DD0020087046E045
S31508000F002C4890F9000020B102280BD0042828D1DB
S31508000F1016E0012028490870002028490870284949
S31508000F2008701EE000202449087001202349087033
S31508000F30002023490870234800682349086010E008
S31508000F4000201D4908701D49087001201C490870B9
S31508000F5000F060FA01201D49087000201349087046
S31508000F6000BF00BF13E013E000200C4908701249C7
S31508000F700870124908701249087000F0FFF900F06D
S31508000F8049FA00F067FA01201149087000BF00BF4E
S31508000F9010BD00000080A244200000204700002069
S31508000FA0FC00002024000020000400404900002026
S31508000FB026000020340000204000002035000020D4
S31508000FC04600002030000020280000204A000020AB
S31508000FD04800002010B508498A78C97802EB012034
S31508000FE0FFF774FA05490860084601680448FFF7E0
S31508000FF01CF90249086010BD4001002020000020AD
S3150800100000A082442DE9F04387B01D49C868FFF760
S315080010105DFA81461A4881694846FFF70CF9804609
S31508001020FFF787FA84B21649086816490968FFF770
S31508001030FCF88046FFF77DFA85B212480068FFF78C
S3150800104078FA86B20E490868FFF773FA87B2002164
S315080010500B48808980B2CDE90250CDE904410A489F
S3150800106000780A490978CDE9001009480288094834
S3150800107003783146384601F067F807B0BDE8F083D3
S31508001080FC00002020000020380000203700002047
S3150800109034040040360000202DE9F04102460025C0
S315080010A00026002000230024002791F803C00CF036
S315080010B00F0591F803C00CF0100CBCF1000F03D01B
S315080010C091F802C04CEA050591F800C0BCF1000F82
S315080010D031D0146800202BE04FF0010C0CFA00F315
S315080010E0B1F800C00CEA03069E4220D183004FF0F7
S315080010F00F0C0CFA03F7BC4305FA03FC4CEA04048C
S3150800110091F803C0BCF1280F06D14FF0010C0CFA78
S3150800111000FCC2F814C00AE091F803C0BCF1480FFD
S3150800112005D14FF0010C0CFA00FCC2F810C0401CA7
S315080011300828D1D31460B1F800C0BCF1FF0F34DD24
S31508001140546800202EE000F1080C4FF0010808FA58
S315080011500CF3B1F800C00CEA03069E4221D18300C5
S315080011604FF00F0C0CFA03F7BC4305FA03FC4CEAE4
S31508001170040491F803C0BCF1280F05D100F1080C4E
S3150800118008FA0CF8C2F8148091F803C0BCF1480FAD
S3150800119007D100F1080C4FF0010808FA0CF8C2F85C
S315080011A01080401C0828CED35460BDE8F0810000AA
S315080011B0F0B50A46002300240021002500F0004669
S315080011C0B6F1004F02D11D4EF16901E01B4E716860
S315080011D0C0F3034583B200F44016B6F5401F08D1A4
S315080011E021F07061154E766826F07066134F7E60A2
S315080011F012E000F48016B6F5801F06D1032606FA1B
S3150800120005F4A14341F0706106E0460D360103FA84
S3150800121006F6B14341F0706122B1460D360103FA74
S3150800122006F6314300F00046B6F1004F02D1034EF0
S31508001230F16101E0014E7160F0BD0000000001405F
S31508001240416170470161704700BFFEE708B501219B
S31508001250082000F00BFC7820ADF8000048208DF837
S31508001260030003208DF8020069460248FFF714FFC1
S3150800127008BD0000000C014010B50446234800785C
S31508001280012827D12248006858B121480838006843
S3150800129038B11F480C38006818B11D48001F00688F
S315080012A0C0B90A2001F0E4FE002018490870184861
S315080012B0006808B9012010BD15480838006808B943
S315080012C00220F8E712480C38006808B90320F2E74C
S315080012D00420F0E70E480068012810D10C480838A9
S315080012E0006801280BD10A480C380068012806D185
S315080012F00748001F0068012801D104490870012C1D
S3150800130002D10120014908700020D4E71C00002002
S315080013101881214228E0002400BF22E013480088F3
S315080013201349086004EB4400124901EB8000806809
S315080013300F490968081A04EB44010E4A02EB8101B9
S31508001340898888420BD30A48006804EB440102EBFB
S315080013508101886004EB440152F821008047601C33
S31508001360C4B2052CDAD300BFD5E700008C000020F4
S31508001370300000204C00002000BFFEE710B5002119
S31508001380014800F08AFE10BD0004004070470000C6
S3150800139070B5002100230F22C47804B3154C2468C5
S315080013A004F4E064C4F5E064210AC1F10403CA4008
S315080013B0447804FA03F184781440214309010E4C59
S315080013C00678A155047804F01F050124AC40057879
S315080013D06D11AD0005F1E025C5F8004109E0047876
S315080013E004F01F050124AC40044D0678761145F833
S315080013F0264070BD0CED00E000E400E080E100E06E
S3150800140002490143024A1160704700000000FA05CC
S315080014100CED00E070B5002418E004F1B0000021DE
S3150800142000F06DFA0021084600F069FA0021102044
S3150800143000F065FA002505E00121002000F05FFABA
S31508001440681CC5B2802DF7DB601CC4B2082CE4DB2F
S3150800145070BD000010B50A2308A20021084600F056
S3150800146033FA0A2308A20221002000F02DFA0A23E3
S3150800147009A20421002000F027FA10BD4D6F64650B
S315080014805570646F776D00004D6F646542616C6CD2
S31508001490436865636B0000004D6F64655365744867
S315080014A0696768002DE9FF5F88B0834614461D46C4
S315080014B0DDF858A04FF00108002005900690079027
S315080014C00127002600BF81460022134620462946EA
S315080014D0FFF78EF809D285F00040CDE90040204696
S315080014E00199FFF73AF8064604E020462946FFF731
S315080014F034F806463046FEF7F2FF22462B46CDE97B
S315080015000001FEF76EFFCDE902010022544BDDE92A
S315080015100201FEF769FFCDE90001FFF73DF88146B4
S3150800152006E007EB8700470008F1010000F0FF0816
S315080015300A2096FBF0F090FBF7F00028F1D142F272
S31508001540107096FBF0F00A2190FBF1F201FB1200F5
S31508001550C0B28DF814004FF47A7096FBF0F090FB49
S31508001560F1F201FB1200C0B28DF81500642096FB5B
S31508001570F0F090FBF1F201FB1200C0B28DF81600F4
S315080015800A2096FBF0F090FBF1F201FB1200C0B2C4
S315080015908DF817000A2096FBF0F100FB1160C0B227
S315080015A08DF818004FF47A70B9FBF0F00A21B0FBF9
S315080015B0F1F201FB12008DF81A006420B9FBF0F075
S315080015C0B0FBF1F201FB12008DF81B000A20B9FBF3
S315080015D0F0F0B0FBF1F201FB12008DF81C000A20B6
S315080015E0B9FBF0F100FB11908DF81D0000210AF1FE
S315080015F0060005AA1154002705E005A8C05D30308D
S3150800160005A9C8557F1C0A2FF7DB0022134620467A
S315080016102946FEF7EDFF08D208F1010000F0FF08A1
S315080016202D20C8F1050105AA5054BAF1000F03D1BF
S3150800163020208DF8190002E02E208DF819000021CF
S315080016400AF1060005AA1154C8F1050005A94218B1
S315080016500C235846099900F037F90CB0BDE8F09FFD
S315080016600088C34010B54FF480710948FFF7EAFDBA
S315080016704FF400710648FFF7E5FD4FF40071044882
S31508001680FFF7DEFD4FF480710148FFF7D9FD10BD65
S31508001690000C014010B54FF480710748FFF7D2FDE2
S315080016A04FF400710448FFF7CBFD4FF40071024870
S315080016B0FFF7C8FD10BD0000000C014010B54FF43F
S315080016C080710448FFF7BEFD4FF480710148FFF7AB
S315080016D0B7FD10BD000C014008B50121092000F036
S315080016E0C5F901214348FFF763FD4FF44070ADF893
S315080016F0000010208DF8030003208DF802006946CB
S315080017003D48FFF7C9FC4FF440713B48FFF79AFD87
S315080017104FF4487001F0ACFC0021AE2000F0EFF861
S315080017200021084600F0EBF80021102000F0E7F849
S315080017300021402000F0E3F80021B02000F0DFF897
S315080017400021812000F0DBF80021FF2000F0D7F807
S315080017500021A12000F0D3F80021A62000F0CFF840
S315080017600021A82000F0CBF800213F2000F0C7F8A0
S315080017700021C82000F0C3F80021D32000F0BFF8EC
S315080017800021084600F0BBF80021D52000F0B7F884
S315080017900021802000F0B3F80021D82000F0AFF82F
S315080017A00021052000F0ABF80021D92000F0A7F8A9
S315080017B00021F12000F0A3F80021DA2000F09FF8BC
S315080017C00021122000F09BF80021DB2000F097F89A
S315080017D00021302000F093F800218D2000F08FF8CA
S315080017E00021142000F08BF80021AF2000F087F8C4
S315080017F008BD000000023000000C014070B5044628
S315080018000D4605F1B000002100F079F8102141EAF3
S315080018101410002100F073F804F00F00002100F006
S315080018206EF870BD2DE9F04707460E469046994674
S3150800183000250024A8F12000C5B27F2F02DD00276D
S31508001840B01CC6B2B9F1100F24D131463846FFF79D
S31508001850D5FF002408E004EB0511194A505C012164
S3150800186000F04DF8601CC4B2082CF4DB701CC1B241
S315080018703846FFF7C3FF002409E004EB05110831D9
S315080018800F4A505C012100F03AF8601CC4B2082CDB
S31508001890F3DB12E031463846FFF7B0FF00240AE0D2
S315080018A005EB4501074A02EB4101085D012100F0FD
S315080018B026F8601CC4B2062CF2DBBDE8F0870000EF
S315080018C0843500085C3300082DE9F04105460E46CC
S315080018D014461F460EE022783B4631462846FFF757
S315080018E0A1FF05F10800C5B2782D02DD0025B01C60
S315080018F0C6B2641C20780028EDD1BDE8F08170B529
S3150800190004460D461DB1E0B200F04AF802E0E0B226
S3150800191000F030F870BD00002DE9F04105462C4670
S315080019204FF480711248FFF78BFC00261CE027460F
S3150800193007F08007802F04D1B9000D48FFF782FC15
S3150800194004E04FF400710A48FFF77AFC6006040EBB
S315080019504FF480710648FFF775FC4FF48071044810
S31508001960FFF76EFC701CC6B2082EE0DBBDE8F081FE
S31508001970000C014010B50446FFF774FE7820FFF707
S31508001980CBFFFFF79BFE0020FFF7C6FFFFF796FE8B
S315080019902046FFF7C1FFFFF791FEFFF77BFE10BD5C
S315080019A010B50446FFF75EFE7820FFF7B5FFFFF790
S315080019B085FE4020FFF7B0FFFFF780FE2046FFF7C1
S315080019C0ABFFFFF77BFEFFF765FE10BD70B504465B
S315080019D00D462846FEF77AFD0646616AFEF72AFE98
S315080019E003D2606AFEF78CFD05462846FEF76EFDB3
S315080019F00646A16AFEF714FE03D2A06AFEF780FD2A
S31508001A000546284670BD70472DE9F04704460D4641
S31508001A1016461F46DDE9099ADDF820800020606039
S31508001A20A060E060206125606661A761C4F81C803B
S31508001A30054820624846FEF749FD60625046FEF7B3
S31508001A4045FDA062BDE8F08700409C4629B1064ADC
S31508001A50D2690243044BDA6104E0034AD26982433D
S31508001A60014BDA61704700000010024029B1064AAE
S31508001A7092690243044B9A6104E0034A92698243DD
S31508001A80014B9A61704700000010024030B50021F2
S31508001A900022002400232D4D6D6805F00C0121B1AC
S31508001AA0042905D0082923D105E0294D056022E03F
S31508001AB0274D05601FE0254D6D6805F47012234D0E
S31508001AC06D6805F48034022505EB92421CB9214D58
S31508001AD0554305600BE01D4D6D6805F400351DB1D5
S31508001AE01C4D5543056002E0194D5543056002E05B
S31508001AF0174D056000BF00BF144D6D6805F0F00175
S31508001B000909154D6B5C0568DD4045600F4D6D682C
S31508001B1005F4E061090A104D6B5C4568DD40856097
S31508001B200A4D6D6805F46051C90A0B4D6B5C456832
S31508001B30DD40C560054D6D6805F44041890B074DCC
S31508001B406B5CC568B5FBF3F5056130BD0010024056
S31508001B5000127A0000093D0094000020A40000202D
S31508001B60704710B500F002F810BD00000CB5002053
S31508001B70019000903348006840F48030314908608D
S31508001B8000BF3048006800F4003000900198401CFF
S31508001B900190009818B90198B0F5A06FF1D12948BD
S31508001BA0006800F4003010B10120009001E0002028
S31508001BB000900098012843D12348006840F010009F
S31508001BC0214908600846006820F0030008600846B6
S31508001BD0006840F0020008601A48406819494860E1
S31508001BE00846406848600846406840F48060486097
S31508001BF00846406820F47C1048600846406840F46F
S31508001C00E81048600846006840F08070086000BF29
S31508001C100C48006800F000700028F9D009484068B0
S31508001C2020F00300074948600846406840F0020073
S31508001C30486000BF0348406800F00C000828F9D146
S31508001C400CBD0000001002400020024010B500F054
S31508001C501BFD0548008828B10448006810B10348F0
S31508001C600068804710BD0000A8000020BC000020C6
S31508001C700149086070470000B80000202DE9F041CE
S31508001C8004464FF0E020006900F0040028B10B4834
S31508001C9000684FF47A71484305E0084800684FF435
S31508001CA07A714843C0080546A5FB0460721E60F1B8
S31508001CB00001104600F012FDBDE8F081B8000020D2
S31508001CC010B51348006840F001001149086008463D
S31508001CD04068104908400E494860084600680E49A1
S31508001CE008400B4908600846006820F48020086010
S31508001CF00846406820F4FE0048604FF41F008860DC
S31508001D00FFF72FFF4FF000600449086010BD000080
S31508001D10001002400000FFF8FFFFF6FE08ED00E0A5
S31508001D2010B53248007800F08000002858D101210B
S31508001D30880700F0DBF8D0B12C48007800F04000A6
S31508001D40A8B12A48007800F03F003F280AD1274862
S31508001D50008840F08000254908804FF6FF70244926
S31508001D60088004E021480088401C20490880022198
S31508001D70480700F0BBF898B31C48007800F040000C
S31508001D8088B11A48008840F08000184908804FF04A
S31508001D90804000F0A8F81649088000214FF08040DE
S31508001DA000F00AF91CE00020104908801049088054
S31508001DB00E48008840F040000C49088000214FF08A
S31508001DC0804000F084F800214FF0804000F067F969
S31508001DD00221480700F0F0F80121880700F077F89B
S31508001DE003214FF0804000F06FF810BD1800002066
S31508001DF01A00002030B589B005460C4601210C2092
S31508001E00FFF734FE01210220FFF720FEC020ADF8BF
S31508001E10040003208DF8060018208DF8070001A994
S31508001E201948FFF739F9ADF81C50ADF818400020ED
S31508001E30ADF81E00ADF81A0006A9144800F032F9EC
S31508001E406020ADF808000020ADF810000120ADF8BC
S31508001E500A0002A90D4800F063F802A90B4800F031
S31508001E60BDF80821094800F0B0F80821074800F035
S31508001E7007F90121054800F01BF80121034800F085
S31508001E8026F809B030BD00000008014000040040F3
S31508001E9010B50121054800F029F808B101F0D2F87B
S31508001EA00121024800F010F810BD000000080040AB
S31508001EB021B1028842F08002028004E002884FF6CF
S31508001EC07F731A4002807047CA430282704721B165
S31508001ED0028842F00102028004E002884FF6FE738F
S31508001EE01A40028070470146888E704730B5024610
S31508001EF0002000230024158A05EA0103958905EACE
S31508001F00010413B10CB1012000E0002030BD1AB164
S31508001F1083890B43838102E083898B4383817047DE
S31508001F2070B5002400220023058C4FF6FE76354056
S31508001F300584028C8388048B4FF68F752C40B51E5A
S31508001F402C400D882C43751E2A400D892A434D883E
S31508001F502A43144DA8420BD0134DA84208D0134D5E
S31508001F60A84205D0124DA84202D0124DA84213D15C
S31508001F704FF6F7752A404D892A434FF6FB752A40D6
S31508001F808D882A434FF6FF652B404FF6FF552B40A9
S31508001F908D892B43CD892B4383800483CD88858601
S31508001FA0028470BD002C014000340140004001400D
S31508001FB000440140004801400A460021018C4FF6C2
S31508001FC0FD7319401143018470470A460021018BAD
S31508001FD04FF6F773194011430183704770B5002413
S31508001FE000220023058C4FF6EF7635400584028CD7
S31508001FF08388048B48F6FF752C404FF6FF452C4026
S315080020000D884FF6FF7606EA05252C434FF6DF7551
S315080020102A400D8906EA05152A434D8806EA05155C
S315080020202A43154DA84202D0144DA8421DD14FF699
S315080020307F752A404D894FF6FF7606EA05152A432D
S315080020404FF6BF752A408D8806EA05152A434FF6CE
S31508002050FF352B404FF2FF752B408D8906EA850523
S315080020602B43CD8906EA85052B4383800483CD88D7
S315080020700587028470BD0000002C01400034014031
S315080020800A460021018B4FF2FF7319404FF6FF7382
S3150800209003EA0223194301837047818670478184C6
S315080020A070470000002202881D4B98420ED01D4B37
S315080020B098420BD0B0F1804F08D01B4B984205D000
S315080020C01A4B984202D01A4B984204D14FF68F7396
S315080020D01A404B881A43174B984207D0164B98421A
S315080020E004D04FF6FF431A40CB881A4302808B88E8
S315080020F083850B8803850A4B98420BD0094B984277
S3150800210008D00E4B984205D00D4B984202D00D4B85
S31508002110984201D10B7A0386012383827047000017
S31508002120002C014000340140000400400008004033
S31508002130000C004000100040001400400040014020
S3150800214000440140004801407FB500240026AA2229
S315080021502146641C5B48425405222146641C4254AD
S31508002160AF222146641C4254F1222146641C425483
S3150800217000222146641C42549DF801202146641C15
S3150800218042549DF800202146641C42549DF80520BF
S315080021902046611CCCB24B490A549DF804202046BF
S315080021A0611CCCB247490A549DF809202046611C97
S315080021B0CCB244490A549DF808202046611CCCB28A
S315080021C040490A549DF80D202046611CCCB23D4971
S315080021D00A549DF80C202046611CCCB239490A5491
S315080021E09DF821202046611CCCB236490A549DF838
S315080021F020202046611CCCB232490A549DF825207D
S315080022002146601CC4B22F4842549DF8242020461B
S31508002210611CCCB22B490A549DF829202046611C22
S31508002220CCB228490A549DF828202046611CCCB215
S3150800223024490A549DF82D202046611CCCB2214918
S315080022400A549DF82C202046611CCCB21D490A541C
S315080022509DF831202046611CCCB21A490A549DF8D3
S3150800226030202046611CCCB216490A549DF8352008
S315080022702046611CCCB213490A549DF834202146E5
S31508002280601CC4B20F484254601F0E4908710025ED
S3150800229005E00C48405D3044C6B2681CC5B2A5428C
S315080022A0F7DB2046611CCCB206490E54002505E032
S315080022B00449485D01F042F8681CC5B2A542F7DB3F
S315080022C07FBD0000C800002000B587B0012144F298
S315080022D00400FFF7CBFB4FF40070ADF81800182088
S315080022E08DF81B0003208DF81A0006A92148FEF771
S315080022F0D3FE4FF48060ADF8180004208DF81B005B
S3150800230003208DF81A0006A91A48FEF7C5FE4FF4F1
S31508002310E13002900020ADF80C00ADF80E00ADF8E3
S315080023201000ADF814000C20ADF8120002A91248EE
S3150800233000F032F94021104800F0BCF8012240F2C2
S3150800234025510D4800F002F901210B4800F0BBF8B1
S315080023504FF4E060FFF754F825208DF804000020BC
S315080023608DF8060001208DF8070001A8FFF710F880
S3150800237007B000BD000801400038014010B540F222
S3150800238025510A4800F0B8F870B1084800F070F90D
S31508002390C4B22146054800F070F900BF4021034841
S315080023A000F09DF80128F9D110BD00000038014061
S315080023B000B587B001210420FFF758FB0121480426
S315080023C0FFF744FB0420ADF8180003208DF81A0027
S315080023D018208DF81B0006A91E48FEF75DFE08208A
S315080023E0ADF8180004208DF81B0006A91948FEF759
S315080023F053FE4FF4E13002900020ADF80C00ADF822
S315080024000E00ADF81000ADF814000C20ADF812005F
S3150800241002A9114800F0C0F801210F4800F053F84E
S3150800242040210D4800F046F8012240F225510A489D
S3150800243000F08CF826208DF8040002208DF805009F
S315080024408DF8060001208DF8070001A8FEF7A0FF09
S3150800245007B000BD000801400044004010B540F236
S315080024602551104800F048F8B8B10E4800F000F9B8
S31508002470C4B20D480068401C0B4908600B480C495B
S31508002480096844540A480068401C09490860084617
S315080024900068092801D1002008604021014800F0A1
S315080024A009F810BD00440040C0000020400100208B
S315080024B0C400002001F40072B2F5007F00D100BF0D
S315080024C0CA430280704721B1828942F40052828150
S315080024D004E082894DF6FF731A40828170470246EE
S315080024E00020B1F5007F00D100BF13880B400BB167
S315080024F0012000E00020704770B502460024002342
S315080025000025002040F66A16B14200D100BFC1F38B
S31508002510421501F01F03012606FA03F3012D02D125
S315080025209689334006E0022D02D1168A334001E02F
S31508002530968A33400C12012606FA04F416883440AB
S3150800254013B10CB1012000E0002070BDF0B50346C0
S31508002550002400260025002040F66A17B94200D15B
S3150800256000BF1846C1F3421401F01F06012707FAF7
S3150800257006F5012C01D10C3004E0022C01D11030F3
S3150800258000E014301AB107682F43076002E00768B5
S31508002590AF430760F0BD00002DE9F04786B0054659
S315080025A00E460024A24600BFA1460027B08900B106
S315080025B000BF2F462C8A4CF6FF700440F08804436F
S315080025C02C82AC894EF6F3100440B0883189084352
S315080025D0718908430443AC81AC8A4FF6FF40044036
S315080025E0B0890443AC8201A8FFF750FA1F48874216
S315080025F002D1DDF810A001E0DDF80CA0A88900F4EE
S31508002600004040B10AEBCA0000EB0A1031684900E5
S31508002610B0FBF1F807E00AEBCA0000EB0A103168D4
S315080026208900B0FBF1F86420B8FBF0F0040120093A
S31508002630642101FB1089A88900F4004040B13220CA
S3150800264000EBC900B0FBF1F000F00700044308E016
S31508002650322000EB09106421B0FBF1F000F00F0006
S3150800266004432C8106B0BDE8F0870000003801401D
S3150800267001468888C0F308007047C1F308028280C3
S31508002680704700BFFEE7000010480068401C0F496D
S315080026900860084600680E49096888420FD20B4848
S315080026A00068401C0A490968884204D1094800683C
S315080026B04FF0E021486100200749088005E0012025
S315080026C0054908800020014908607047B0000020CD
S315080026D0AC000020B4000020A800002070B5044615
S315080026E00D460020134908604FF0807200232046EB
S315080026F02946FDF717FD401C0F4908604FF0807208
S315080027004FF0000320462946FDF70CFD0B480260F2
S3150800271000204FF0E021886107480068012803D9A6
S315080027206FF07F40486104E0044800684FF0E021FC
S31508002730486170BDB0000020AC000020B400002045
S315080027400FB4084B10B504A902AA039800F0DEF8E6
S31508002750044602A9002000F070FC204610BC5DF873
S3150800276014FB00003B30000802E008C8121F08C12D
S31508002770002AFAD170477047002001E001C1121FF4
S31508002780002AFBD1704700002DE9FF5F82B00021C7
S31508002790DDE90430020DDDF840B0034318D044F6F5
S315080027A01050A2F2FF3242431514119801281FD087
S315080027B0A5EB0B00401C5FEA000A4FF000064E4FDF
S315080027C0DFF83891B046504615D5CAF1000413E033
S315080027D0119801244AA3012801D16FEA0B01029836
S315080027E0119AC0E90031C0E9024206B0BDE8F09F7F
S315080027F0CBF10000DFE704460021404A491842EBC6
S315080028000450CDE9001012E0E00707D032463B46F7
S3150800281040464946FDF7E8FD8046894632463B462E
S3150800282010461946FDF7E0FD06460F466410002CD3
S31508002830EAD1DDE90401DDE90023BAF1000F06DA81
S31508002840FDF7D2FD42464B46FDF7CEFD05E0FDF706
S31508002850D6FF42464B46FDF7D2FF04460E460022F7
S31508002860284BFEF753F803D84FF0FF30014607E030
S315080028700022254B20463146FDF70FFDFEF72EF8C0
S31508002880102409E0002C0ADB0A220023FDF74AFC83
S31508002890039B30321A55641E50EA0102F2D1641CB9
S315080028A0039AC4F111031444119A012A03D0012290
S315080028B008430DD10AE0084304D000204FF0110B5D
S315080028C0119072E7A3EB0B056D1E0DE05B4504DD69
S315080028D04FF0000205F1010504E003DA4FF00002AB
S315080028E0A5F10105002AECD002981199C0E9023138
S315080028F0C0E9004579E70000000014400000F03FF9
S31508002900300000000000F0430000E03F2DE9FF4FD3
S3150800291095B09B468946064600250FE2252877D1BD
S3150800292000242746F84A0121059400E0044316F8D6
S31508002930013F203B01FA03F01042F7D130782A28EC
S3150800294011D06FF02F033078A0F13002092A16D87B
S31508002950059A44F0020402EB820203EB4202104499
S31508002960761C0590EFE759F8042B0592002A03DA3E
S31508002970504244F40054059044F00204761C307822
S315080029802E2816D116F8010F44F004042A280DD073
S315080029906FF02F023078A0F13003092B09D807EB26
S315080029A0870302EB4303C718761CF3E759F8047B41
S315080029B0761C30786C280FD006DC4C2817D068288F
S315080029C00DD06A2814D104E0742810D07A280FD1C3
S315080029D00DE044F400140AE044F4801401E044F4E1
S315080029E040147278824202D104F58014761C761C53
S315080029F0307866280BD013DC582877D009DC0028F5
S31508002A0075D04528F6D04628F4D047281AD19DE136
S31508002A1018E0632835D0642879D0652812D195E165
S31508002A20702873D008DC6728F1D069286FD06E2823
S31508002A300DD06F2806D1B5E073282CD0752875D02F
S31508002A40782874D05A46179990476D1C75E1C4F3D7
S31508002A500250022809D003280DD0D9F800100428FE
S31508002A600DD00D6009F1040967E1D9F80010EA17DD
S31508002A70C1E90052F6E7D9F800100D80F2E70D70AB
S31508002A80F0E719F8041B8DF8001000208DF80100F6
S31508002A90EA46012003E059F804AB4FF0FF3061071E
S31508002AA04FF0000102D40DE008F101018846B94251
S31508002AB00FDA8045F8DB1AF808100029F4D108E087
S31508002AC008F1010188468142FADB1AF80810002944
S31508002AD0F6D105985B46A0EB080721463846179AB3
S31508002AE000F094FA284400EB080507E04DE029E1D8
S31508002AF00DE01AF8010B5A4617999047B8F10108E4
S31508002B00F7D25B4621463846179A13E142E00A2275
S31508002B100092C4F302524FF0000A022A08D059F86C
S31508002B2004CB032A4FEAEC710AD00DE029E02AE02B
S31508002B3009F1070121F00702F2E802C1914609E00E
S31508002B400FFA8CFC4FEAEC71042A03D14FFA8CFC7D
S31508002B504FEAEC71002907DA0A460021DCF1000C7D
S31508002B6061EB02012D2202E0220504D52B228DF805
S31508002B700420012203E0E20701D02022F7E790466D
S31508002B8059E00A2102E010220DE010214FF0000A58
S31508002B9000910BE010224FF0000A44F004040827C5
S31508002BA0009203E008224FF0000A0092C4F3025292
S31508002BB0022A05D059F804CB0021032A08D009E0D7
S31508002BC009F1070121F00702F2E802C1914605E082
S31508002BD01FFA8CFC042A01D10CF0FF0C4FF00008F8
S31508002BE0220728D5702806D0009B83F0100353EAE5
S31508002BF00A0305D00EE040228DF80420012208E0E1
S31508002C005CEA010206D030228DF804208DF8050012
S31508002C1002229046009B83F0080353EA0A030AD16E
S31508002C205CEA010201D1620705D530228DF804203D
S31508002C304FF001087F1E582804D034A003900EA830
S31508002C4002900DE036A0F9E753466046009AFDF774
S31508002C5069FA84460398825C0298401E02900270C4
S31508002C605CEA0100F0D1029806A9081A00F1200AC8
S31508002C70600702D524F4803400E00127574502DDB9
S31508002C80A7EB0A0000E0002000EB0A010090059877
S31508002C904144401A0590E00306D45B462146179A3C
S31508002CA0059800F0B3F90544002706E001A85A463E
S31508002CB0C05D179990476D1C7F1C4745F6DBE003FE
S31508002CC00CD55B462146179A059800F09FF90544EE
S31508002CD004E030205A46179990476D1C0099481E03
S31508002CE000900029F5DC08E0029802995A46007817
S31508002CF0491C0291179990476D1CBAF10001AAF177
S31508002D00010AF1DC65E1000009280100303132339F
S31508002D103435363738396162636465660000000009
S31508002D2030313233343536373839414243444546F3
S31508002D300000000000F058F90544761C3078002899
S31508002D407FF4ECAD19B02846BDE8F08F620700D4D1
S31508002D50062709F1070222F0070CFCE80223E146E0
S31508002D6003F000485FEA080C02D00FF2702C0DE061
S31508002D705FEA045C02D50FF2682C07E05FEAC47CC0
S31508002D8002D00FF2602C01E0AFF2700C4FF0FF3862
S31508002D9023F00043CDF850C065280CD006DC452842
S31508002DA009D046281DD047283DD13DE0662818D0D1
S31508002DB067287ED138E00021112F01DB112000E0C1
S31508002DC0781CCDE9000106A90EA8FFF7DDFCDDE9B0
S31508002DD00F010E9A03910021009207F1010A04914E
S31508002DE04DE04FF000400097CDE9011006A90EA866
S31508002DF0FFF7CAFCDDE90F0203920E9B1199002228
S31508002E00DDF80CA00093049211B9791C00EB010AB5
S31508002E10B7EB0A0004D4C0F1FF3007F1010A0490A9
S31508002E20AAEB0700019044E0012F00DA01270021F0
S31508002E30112F01DD112000E03846CDE9000106A971
S31508002E400EA8FFF7A1FCDDE90F010E9A03910021F8
S31508002E5004910092BA4621070CD40399514500DA29
S31508002E608A46BAF1010F05DD009AAAF10101515C03
S31508002E70302908D0B84202DA10F1040F06DA012127
S31508002E80CDE9011015E0AAF10101E9E7002805DC02
S31508002E90049901440491AAEB000102E0411C514542
S31508002EA000DD8A460499401A401C01904FF0004004
S31508002EB00290200704D40198504501DBCDF8048020
S31508002EC000208DF84F0002980DF14F07B0F1004F22
S31508002ED025D02B200E9002984FF0020800280CDA15
S31508002EE0404202902D200E9007E00A210298FDF735
S31508002EF0ABFB3031029007F8011DB8F10001A8F1CB
S31508002F000108F2DC02980028EFD1791E0E980870A5
S31508002F10307800F0200040F0450007F8020D12A8AE
S31508002F20C01B00F107081498007800B1012000EBD7
S31508002F300A01019801EBE07105984144401A401EC8
S31508002F400590E00306D45B462146179A059800F0DB
S31508002F505DF805441498007818B15A4617999047B1
S31508002F606D1CE00324D55B462146179A059800F0A8
S31508002F704DF805441CE00498002807DBDDE9030149
S31508002F80884203DD0098405C179901E017993020C4
S31508002F905A469047049805F10105401C049001988B
S31508002FA0401E019004D12E205A46179990476D1C51
S31508002FB0BAF10001AAF1010ADDDC05E017F8010BF8
S31508002FC05A46179990476D1CB8F10001A8F10108F7
S31508002FD0F4DC5B462146179A0598ABE62D000000FF
S31508002FE02B000000200000002DE9F04104460025D2
S31508002FF01E461746880404D405E039462020B04703
S315080030006D1C641EF9D52846BDE8F0812DE9F0410E
S31508003010044600251E469046C80301D5302700E021
S315080030202027880404D505E041463846B0476D1C7C
S31508003030641EF9D52846BDE8F0810A68531C0B6062
S315080030401070704708480088401C074908800846E1
S315080030500088322807DB0020088004480088401CC6
S315080030600249088000BF70478A0000208C000020B3
S3150800307070B505462846FEF701FE4FF0E0200069C8
S3150800308020F002004FF0E02108610846006940F090
S31508003090010008610BE04FF0E020046904F4803079
S315080030A028B1FFF7F1FA0748008800B100E0F2E717
S315080030B000BF4FF0E020006920F003004FF0E02148
S315080030C0086170BDA800002008B501211020FEF790
S315080030D0CDFC10208DF803004002ADF80000012059
S315080030E08DF8020069460248FDF7D6FF08BD0000C4
S315080030F0001001400EB54820FEF7BAFDFFF7E4FFC1
S31508003100092141F27070FEF775FEFEF79FF814204C
S3150800311000F0E0F8FFF7D8F8FFF74AF900204FF477
S31508003120FA610A4A0A4BCDE900210290094A0A497E
S315080031300A48FEF769FCFEF7CFFAFEF76BF9FEF7C9
S3150800314089F901E0FEF7E6F8FCE700000000E04038
S31508003150CDCC4C3CCDCC4C3F00002F44FC0000208D
S315080031602DE9F84F04460D46656054492068FDF779
S3150800317061FA09D852492068FDF752FA04D840F294
S31508003180EE205049086035E04D492068FDF752FAAF
S3150800319004D24FF4C8704B4908602BE04A492068AE
S315080031A0FDF748FA09D249492068FDF739FA04D2E9
S315080031B040F22620434908601CE043492068FDF791
S315080031C02FFA09D200212068FDF734FA04D24FF409
S315080031D0E1703C4908600DE03D492068FDF720FA9A
S315080031E008D23A492068FDF725FA03D24FF4FF7052
S315080031F03449086033480068FDF768F9074661688E
S31508003200FDF718FA0AD2E068FDF760F980466168AA
S31508003210FCF7B9FF0746FDF773F9E060E068FDF7CC
S3150800322055F90746216AFDF705FA04D2206AFDF723
S3150800323067F9E06011E0206A80F00047E068FDF772
S3150800324045F980463946FDF7EBF906D2206A80F043
S3150800325000473846FDF754F9E060D4E90101FCF768
S31508003260E4FF20612169E069FCF7E5FF0090E0686A
S31508003270FDF72CF98346A169FCF7DDFF81466168F5
S315080032806069FCF7D8FF82464946FCF77CFF804612
S315080032900099FCF778FF0746FDF732F906463146EE
S315080032A02046FEF793FB06466068A0603046FDF7A9
S315080032B00DF9E0623046BDE8F88F00000080224430
S315080032C000805444000000200000E14300800944C7
S315080032D000803B447FB5044601210420FEF7B6FB77
S315080032E04726A5B2ADF80850ADF804600020ADF841
S315080032F00A00ADF8060001A90F48FEF7D3FE012221
S3150800330011460D48FEF703FE01210B48FEF7DCFDCA
S315080033101E208DF8000003208DF8010001208DF88D
S3150800332002008DF803006846FEF732F801210248CC
S31508003330FEF7CDFD7FBD00000008004010B504462D
S3150800334000BF40210448FFF7CAF80028F9D02146F3
S315080033500148FFF792F910BD00380140000000004F
S3150800336000000000002F00000000070007000014FE
S315080033707F147F1400242A7F2A120062640813230C
S3150800338000364955225000000503000000001C22A3
S315080033904100000041221C000014083E08140008E1
S315080033A0083E0808000000A0600000080808080891
S315080033B0000060600000002010080402003E514929
S315080033C0453E0000427F40000042615149460021C7
S315080033D041454B31001814127F10002745454539E1
S315080033E0003C4A494930000171090503003649493C
S315080033F0493600064949291E0000363600000000F5
S31508003400563600000008142241000014141414143F
S3150800341000004122140800020151090600324959E8
S31508003420513E007C1211127C007F49494936003E04
S3150800343041414122007F4141221C007F49494941BF
S31508003440007F09090901003E4149497A007F0808B9
S31508003450087F0000417F4100002040413F01007F76
S3150800346008142241007F40404040007F020C027F42
S31508003470007F0408107F003E4141413E007F090954
S315080034800906003E4151215E007F0919294600467A
S31508003490494949310001017F0101003F4040403F51
S315080034A0001F2040201F003F4038403F006314089B
S315080034B01463000708700807006151494543000076
S315080034C07F41410000552A552A55000041417F0099
S315080034D0000402010204004040404040000001028E
S315080034E00400002054545478007F48444438003877
S315080034F04444442000384444487F003854545418FF
S3150800350000087E0901020018A4A4A47C007F080410
S3150800351004780000447D4000004080847D00007FE0
S31508003520102844000000417F4000007C04180478FD
S31508003530007C0804047800384444443800FC2424F9
S3150800354024180018242418FC007C080404080048E1
S315080035505454542000043F444020003C4040207C02
S31508003560001C2040201C003C4030403C00442810F1
S315080035702844001CA0A0A07C004464544C441414A5
S3150800358014141414000000000000000000000000DD
S3150800359000000000000000F80000000000000033F2
S315080035A03000000000100C06100C06000000000099
S315080035B00000000040C07840C0784000043F040482
S315080035C03F040400007088FC08300000001820FF43
S315080035D0211E0000F008F000E018000000211C037E
S315080035E01E211E0000F00888700000001E212324FA
S315080035F01927211010160E00000000000000000018
S3150800360000000000000000E01804020000000007A7
S315080036101820400000020418E000000000402018AE
S3150800362007000000404080F0804040000202010F81
S3150800363001020200000000F0000000000101011F65
S3150800364001010100000000000000000080B07000C9
S315080036500000000000000000000000000001010159
S3150800366001010101000000000000000000303000E8
S3150800367000000000000000008060180400601806C2
S315080036800100000000E010080810E000000F1020FC
S3150800369020100F00001010F8000000000020203F46
S315080036A020200000007008080888700000302824D0
S315080036B02221300000300888884830000018202071
S315080036C020110E000000C02010F800000007042496
S315080036D0243F240000F808888808080000192120DB
S315080036E020110E0000E0108888180000000F112035
S315080036F020110E0000380808C83808000000003FEE
S31508003700000000000070880808887000001C22214C
S3150800371021221C0000E010080810E00000003122F9
S3150800372022110F00000000C0C00000000000003099
S3150800373030000000000000800000000000008060EB
S31508003740000000000000804020100800000102046C
S315080037500810200040404040404040000404040453
S31508003760040404000008102040800000002010080F
S3150800377004020100007048080808F0000000003044
S3150800378036010000C030C828E810E00007182724D2
S3150800379023140B000000C038E0000000203C230280
S315080037A00227382008F8888888700000203F2020E3
S315080037B020110E00C0300808080838000718202015
S315080037C02010080008F808080810E000203F20200C
S315080037D020100F0008F88888E8081000203F2020ED
S315080037E02320180008F88888E8081000203F2000E1
S315080037F003000000C0300808083800000718202019
S31508003800221E020008F808000008F808203F2101D7
S3150800381001213F20000808F8080800000020203F82
S315080038202020000000000808F8080800C0808080F2
S315080038307F00000008F888C028180800203F2001EB
S315080038402638200008F8080000000000203F202045
S315080038502020300008F8F800F8F80800203F003F5C
S31508003860003F200008F830C00008F808203F200074
S3150800387007183F00E01008080810E0000F10202085
S3150800388020100F0008F808080808F000203F21015A
S3150800389001010000E01008080810E0000F182424B1
S315080038A038504F0008F8888888887000203F200024
S315080038B0030C3020007088080808380000382021DA
S315080038C021221C00180808F8080818000000203FE4
S315080038D02000000008F808000008F808001F20204B
S315080038E020201F000878880000C83808000007381C
S315080038F00E010000F80800F80008F800033C07006D
S31508003900073C0300081868808068180820302C03D4
S31508003910032C30200838C800C83808000000203FAB
S315080039202000000010080808C8380800203826219A
S3150800393020201800000000FE020202000000007F9E
S3150800394040404000000C30C00000000000000001AC
S315080039500638C00000020202FE0000000040404097
S315080039607F000000000004020202040000000000BC
S315080039700000000000000000000000008080808039
S315080039808080808000020204000000000000000021
S3150800399000000000000080808080000000192422BA
S315080039A022223F2008F8008080000000003F1120F6
S315080039B020110E000000008080800000000E1120FB
S315080039C020201100000000808088F800000E1120D9
S315080039D020103F200000808080800000001F2222E7
S315080039E022221300008080F0888888180020203F53
S315080039F0202000000000808080808000006B949466
S31508003A009493600008F8008080800000203F210021
S31508003A1000203F2000809898000000000020203FEA
S31508003A2020200000000000809898000000C08080D8
S31508003A30807F000008F8000080808000203F240274
S31508003A402D302000000808F8000000000020203F64
S31508003A50202000008080808080808000203F200019
S31508003A603F20003F8080008080800000203F2100AA
S31508003A7000203F200000808080800000001F20205A
S31508003A8020201F00808000808000000080FFA12089
S31508003A9020110E000000008080808000000E11209A
S31508003AA020A0FF80808080008080800020203F2129
S31508003AB020000100000080808080800000332424DC
S31508003AC024241900008080E0808000000000001F88
S31508003AD0202000008080000000808000001F202039
S31508003AE020103F20808080000080808000010E30FA
S31508003AF00806010080800080008080800F300C035B
S31508003B000C300F0000808000808080000020312E5D
S31508003B100E312000808080000080808080818E7039
S31508003B201806010000808080808080000021302CEB
S31508003B302221300000000000807C02020000000004
S31508003B40003F404000000000FF00000000000000A9
S31508003B50FF0000000002027C800000000040403F99
S31508003B600000000000060101020204040000000033
S31508003B7000000000943B000800000020C800000078
S31508003B80682700085C3C0008C8000020880400007C
S31508003B907827000800000000000000000000000070
S31508003BA00000000000000000000000000000000007
S31508003BB001000000000000000000000000000000F6
S31508003BC000000000000000000000010000000000E6
S31508003BD032000000000100000000000001010000A2
S31508003BE071090008C800000000000000050E000862
S31508003BF02800000000000000150A00081400000054
S31508003C000000000005100008080000000000000081
S31508003C10D50F0008040000000000000000000000A6
S31508003C20000000000000000000000000010203047C
S31508003C30010203040607080902040608000000003A
S31508003C40000000000000000000000000480000001E
S31108003C500000000000000000000000005A
S705080000ED05
